{
  "_format": "hh-sol-artifact-1",
  "contractName": "TestBeautyQueensNFT",
  "sourceName": "contracts/BeautyQueensNFT.sol",
  "abi": [
    {
      "inputs": [
        {
          "internalType": "string",
          "name": "uri",
          "type": "string"
        },
        {
          "internalType": "bytes32",
          "name": "merkleroot",
          "type": "bytes32"
        },
        {
          "internalType": "address",
          "name": "_proxyRegistryAddress",
          "type": "address"
        }
      ],
      "stateMutability": "nonpayable",
      "type": "constructor"
    },
    {
      "anonymous": false,
      "inputs": [
        {
          "indexed": true,
          "internalType": "address",
          "name": "owner",
          "type": "address"
        },
        {
          "indexed": true,
          "internalType": "address",
          "name": "approved",
          "type": "address"
        },
        {
          "indexed": true,
          "internalType": "uint256",
          "name": "tokenId",
          "type": "uint256"
        }
      ],
      "name": "Approval",
      "type": "event"
    },
    {
      "anonymous": false,
      "inputs": [
        {
          "indexed": true,
          "internalType": "address",
          "name": "owner",
          "type": "address"
        },
        {
          "indexed": true,
          "internalType": "address",
          "name": "operator",
          "type": "address"
        },
        {
          "indexed": false,
          "internalType": "bool",
          "name": "approved",
          "type": "bool"
        }
      ],
      "name": "ApprovalForAll",
      "type": "event"
    },
    {
      "anonymous": false,
      "inputs": [
        {
          "indexed": true,
          "internalType": "address",
          "name": "previousOwner",
          "type": "address"
        },
        {
          "indexed": true,
          "internalType": "address",
          "name": "newOwner",
          "type": "address"
        }
      ],
      "name": "OwnershipTransferred",
      "type": "event"
    },
    {
      "anonymous": false,
      "inputs": [
        {
          "indexed": true,
          "internalType": "address",
          "name": "from",
          "type": "address"
        },
        {
          "indexed": true,
          "internalType": "address",
          "name": "to",
          "type": "address"
        },
        {
          "indexed": true,
          "internalType": "uint256",
          "name": "tokenId",
          "type": "uint256"
        }
      ],
      "name": "Transfer",
      "type": "event"
    },
    {
      "inputs": [
        {
          "internalType": "address",
          "name": "",
          "type": "address"
        }
      ],
      "name": "_presaleClaimed",
      "outputs": [
        {
          "internalType": "uint256",
          "name": "",
          "type": "uint256"
        }
      ],
      "stateMutability": "view",
      "type": "function"
    },
    {
      "inputs": [],
      "name": "_price",
      "outputs": [
        {
          "internalType": "uint256",
          "name": "",
          "type": "uint256"
        }
      ],
      "stateMutability": "view",
      "type": "function"
    },
    {
      "inputs": [
        {
          "internalType": "address",
          "name": "to",
          "type": "address"
        },
        {
          "internalType": "uint256",
          "name": "tokenId",
          "type": "uint256"
        }
      ],
      "name": "approve",
      "outputs": [],
      "stateMutability": "nonpayable",
      "type": "function"
    },
    {
      "inputs": [
        {
          "internalType": "address",
          "name": "owner",
          "type": "address"
        }
      ],
      "name": "balanceOf",
      "outputs": [
        {
          "internalType": "uint256",
          "name": "",
          "type": "uint256"
        }
      ],
      "stateMutability": "view",
      "type": "function"
    },
    {
      "inputs": [],
      "name": "baseExtension",
      "outputs": [
        {
          "internalType": "string",
          "name": "",
          "type": "string"
        }
      ],
      "stateMutability": "view",
      "type": "function"
    },
    {
      "inputs": [],
      "name": "baseURI",
      "outputs": [
        {
          "internalType": "string",
          "name": "",
          "type": "string"
        }
      ],
      "stateMutability": "view",
      "type": "function"
    },
    {
      "inputs": [
        {
          "internalType": "uint256",
          "name": "_newPrice",
          "type": "uint256"
        }
      ],
      "name": "changePrice",
      "outputs": [],
      "stateMutability": "nonpayable",
      "type": "function"
    },
    {
      "inputs": [
        {
          "internalType": "uint256",
          "name": "tokenId",
          "type": "uint256"
        }
      ],
      "name": "getApproved",
      "outputs": [
        {
          "internalType": "address",
          "name": "",
          "type": "address"
        }
      ],
      "stateMutability": "view",
      "type": "function"
    },
    {
      "inputs": [],
      "name": "getBalance",
      "outputs": [
        {
          "internalType": "uint256",
          "name": "",
          "type": "uint256"
        }
      ],
      "stateMutability": "view",
      "type": "function"
    },
    {
      "inputs": [
        {
          "internalType": "address",
          "name": "owner",
          "type": "address"
        },
        {
          "internalType": "address",
          "name": "operator",
          "type": "address"
        }
      ],
      "name": "isApprovedForAll",
      "outputs": [
        {
          "internalType": "bool",
          "name": "",
          "type": "bool"
        }
      ],
      "stateMutability": "view",
      "type": "function"
    },
    {
      "inputs": [],
      "name": "maxSupply",
      "outputs": [
        {
          "internalType": "uint256",
          "name": "",
          "type": "uint256"
        }
      ],
      "stateMutability": "view",
      "type": "function"
    },
    {
      "inputs": [],
      "name": "name",
      "outputs": [
        {
          "internalType": "string",
          "name": "",
          "type": "string"
        }
      ],
      "stateMutability": "view",
      "type": "function"
    },
    {
      "inputs": [],
      "name": "notRevealedUri",
      "outputs": [
        {
          "internalType": "string",
          "name": "",
          "type": "string"
        }
      ],
      "stateMutability": "view",
      "type": "function"
    },
    {
      "inputs": [],
      "name": "owner",
      "outputs": [
        {
          "internalType": "address",
          "name": "",
          "type": "address"
        }
      ],
      "stateMutability": "view",
      "type": "function"
    },
    {
      "inputs": [
        {
          "internalType": "uint256",
          "name": "tokenId",
          "type": "uint256"
        }
      ],
      "name": "ownerOf",
      "outputs": [
        {
          "internalType": "address",
          "name": "",
          "type": "address"
        }
      ],
      "stateMutability": "view",
      "type": "function"
    },
    {
      "inputs": [],
      "name": "paused",
      "outputs": [
        {
          "internalType": "bool",
          "name": "",
          "type": "bool"
        }
      ],
      "stateMutability": "view",
      "type": "function"
    },
    {
      "inputs": [],
      "name": "presaleM",
      "outputs": [
        {
          "internalType": "bool",
          "name": "",
          "type": "bool"
        }
      ],
      "stateMutability": "view",
      "type": "function"
    },
    {
      "inputs": [
        {
          "internalType": "address",
          "name": "account",
          "type": "address"
        },
        {
          "internalType": "uint256",
          "name": "_amount",
          "type": "uint256"
        },
        {
          "internalType": "bytes32[]",
          "name": "_proof",
          "type": "bytes32[]"
        }
      ],
      "name": "presaleMint",
      "outputs": [],
      "stateMutability": "payable",
      "type": "function"
    },
    {
      "inputs": [],
      "name": "publicM",
      "outputs": [
        {
          "internalType": "bool",
          "name": "",
          "type": "bool"
        }
      ],
      "stateMutability": "view",
      "type": "function"
    },
    {
      "inputs": [
        {
          "internalType": "uint256",
          "name": "_amount",
          "type": "uint256"
        }
      ],
      "name": "publicSaleMint",
      "outputs": [],
      "stateMutability": "payable",
      "type": "function"
    },
    {
      "inputs": [],
      "name": "renounceOwnership",
      "outputs": [],
      "stateMutability": "nonpayable",
      "type": "function"
    },
    {
      "inputs": [],
      "name": "reveal",
      "outputs": [],
      "stateMutability": "nonpayable",
      "type": "function"
    },
    {
      "inputs": [],
      "name": "revealed",
      "outputs": [
        {
          "internalType": "bool",
          "name": "",
          "type": "bool"
        }
      ],
      "stateMutability": "view",
      "type": "function"
    },
    {
      "inputs": [],
      "name": "root",
      "outputs": [
        {
          "internalType": "bytes32",
          "name": "",
          "type": "bytes32"
        }
      ],
      "stateMutability": "view",
      "type": "function"
    },
    {
      "inputs": [
        {
          "internalType": "address",
          "name": "from",
          "type": "address"
        },
        {
          "internalType": "address",
          "name": "to",
          "type": "address"
        },
        {
          "internalType": "uint256",
          "name": "tokenId",
          "type": "uint256"
        }
      ],
      "name": "safeTransferFrom",
      "outputs": [],
      "stateMutability": "nonpayable",
      "type": "function"
    },
    {
      "inputs": [
        {
          "internalType": "address",
          "name": "from",
          "type": "address"
        },
        {
          "internalType": "address",
          "name": "to",
          "type": "address"
        },
        {
          "internalType": "uint256",
          "name": "tokenId",
          "type": "uint256"
        },
        {
          "internalType": "bytes",
          "name": "data",
          "type": "bytes"
        }
      ],
      "name": "safeTransferFrom",
      "outputs": [],
      "stateMutability": "nonpayable",
      "type": "function"
    },
    {
      "inputs": [
        {
          "internalType": "address",
          "name": "operator",
          "type": "address"
        },
        {
          "internalType": "bool",
          "name": "approved",
          "type": "bool"
        }
      ],
      "name": "setApprovalForAll",
      "outputs": [],
      "stateMutability": "nonpayable",
      "type": "function"
    },
    {
      "inputs": [
        {
          "internalType": "string",
          "name": "_newBaseExtension",
          "type": "string"
        }
      ],
      "name": "setBaseExtension",
      "outputs": [],
      "stateMutability": "nonpayable",
      "type": "function"
    },
    {
      "inputs": [
        {
          "internalType": "string",
          "name": "_tokenBaseURI",
          "type": "string"
        }
      ],
      "name": "setBaseURI",
      "outputs": [],
      "stateMutability": "nonpayable",
      "type": "function"
    },
    {
      "inputs": [
        {
          "internalType": "bytes32",
          "name": "merkleroot",
          "type": "bytes32"
        }
      ],
      "name": "setMerkleRoot",
      "outputs": [],
      "stateMutability": "nonpayable",
      "type": "function"
    },
    {
      "inputs": [
        {
          "internalType": "string",
          "name": "_notRevealedURI",
          "type": "string"
        }
      ],
      "name": "setNotRevealedURI",
      "outputs": [],
      "stateMutability": "nonpayable",
      "type": "function"
    },
    {
      "inputs": [
        {
          "internalType": "bytes4",
          "name": "interfaceId",
          "type": "bytes4"
        }
      ],
      "name": "supportsInterface",
      "outputs": [
        {
          "internalType": "bool",
          "name": "",
          "type": "bool"
        }
      ],
      "stateMutability": "view",
      "type": "function"
    },
    {
      "inputs": [],
      "name": "symbol",
      "outputs": [
        {
          "internalType": "string",
          "name": "",
          "type": "string"
        }
      ],
      "stateMutability": "view",
      "type": "function"
    },
    {
      "inputs": [],
      "name": "togglePause",
      "outputs": [],
      "stateMutability": "nonpayable",
      "type": "function"
    },
    {
      "inputs": [],
      "name": "togglePresale",
      "outputs": [],
      "stateMutability": "nonpayable",
      "type": "function"
    },
    {
      "inputs": [],
      "name": "togglePublicSale",
      "outputs": [],
      "stateMutability": "nonpayable",
      "type": "function"
    },
    {
      "inputs": [
        {
          "internalType": "uint256",
          "name": "tokenId",
          "type": "uint256"
        }
      ],
      "name": "tokenURI",
      "outputs": [
        {
          "internalType": "string",
          "name": "",
          "type": "string"
        }
      ],
      "stateMutability": "view",
      "type": "function"
    },
    {
      "inputs": [],
      "name": "totalSupply",
      "outputs": [
        {
          "internalType": "uint256",
          "name": "",
          "type": "uint256"
        }
      ],
      "stateMutability": "view",
      "type": "function"
    },
    {
      "inputs": [
        {
          "internalType": "address",
          "name": "from",
          "type": "address"
        },
        {
          "internalType": "address",
          "name": "to",
          "type": "address"
        },
        {
          "internalType": "uint256",
          "name": "tokenId",
          "type": "uint256"
        }
      ],
      "name": "transferFrom",
      "outputs": [],
      "stateMutability": "nonpayable",
      "type": "function"
    },
    {
      "inputs": [
        {
          "internalType": "address",
          "name": "newOwner",
          "type": "address"
        }
      ],
      "name": "transferOwnership",
      "outputs": [],
      "stateMutability": "nonpayable",
      "type": "function"
    },
    {
      "inputs": [],
      "name": "withdrawMoney",
      "outputs": [],
      "stateMutability": "nonpayable",
      "type": "function"
    }
  ],
  "bytecode": "0x611388600a556101006040526041608081815290620029e860a03980516200003091600c9160209091019062000254565b5060408051808201909152600580825264173539b7b760d91b60209092019182526200005f91600d9162000254565b50600e805463ffffffff191690556105dc600f55662386f26fc100006011553480156200008b57600080fd5b5060405162002a2938038062002a29833981016040819052620000ae916200032d565b604080518082018252601381527f54657374426561757479517565656e734e4654000000000000000000000000006020808301918252835180850190945260038452622128a760e91b9084015281519192916200010e9160009162000254565b5080516200012490600190602084019062000254565b505050620001416200013b6200017a60201b60201c565b6200017e565b60016007556008829055600980546001600160a01b0319166001600160a01b0383161790556200017183620001d0565b50505062000465565b3390565b600680546001600160a01b038381166001600160a01b0319831681179093556040519116919082907f8be0079c531659141344cd1fd0a4f28419497f9722a3daafe3b4186f6b6457e090600090a35050565b620001da620001f3565b8051620001ef90600b90602084019062000254565b5050565b6006546001600160a01b03163314620002525760405162461bcd60e51b815260206004820181905260248201527f4f776e61626c653a2063616c6c6572206973206e6f7420746865206f776e6572604482015260640160405180910390fd5b565b828054620002629062000428565b90600052602060002090601f016020900481019282620002865760008555620002d1565b82601f10620002a157805160ff1916838001178555620002d1565b82800160010185558215620002d1579182015b82811115620002d1578251825591602001919060010190620002b4565b50620002df929150620002e3565b5090565b5b80821115620002df5760008155600101620002e4565b634e487b7160e01b600052604160045260246000fd5b80516001600160a01b03811681146200032857600080fd5b919050565b6000806000606084860312156200034357600080fd5b83516001600160401b03808211156200035b57600080fd5b818601915086601f8301126200037057600080fd5b815181811115620003855762000385620002fa565b604051601f8201601f19908116603f01168101908382118183101715620003b057620003b0620002fa565b81604052828152602093508984848701011115620003cd57600080fd5b600091505b82821015620003f15784820184015181830185015290830190620003d2565b82821115620004035760008484830101525b80975050505080860151935050506200041f6040850162000310565b90509250925092565b600181811c908216806200043d57607f821691505b602082108114156200045f57634e487b7160e01b600052602260045260246000fd5b50919050565b61257380620004756000396000f3fe6080604052600436106102465760003560e01c80638cc4de1911610139578063b88d4fde116100b6578063da3ef23f1161007a578063da3ef23f14610642578063e222c7f914610662578063e985e9c514610677578063ebf0c71714610697578063f2c4ce1e146106ad578063f2fde38b146106cd57600080fd5b8063b88d4fde146105c2578063c4ae3168146105e2578063c6682862146105f7578063c87b56dd1461060c578063d5abeb011461062c57600080fd5b8063a2b40d19116100fd578063a2b40d1914610544578063a45063c014610564578063a475b5dd14610585578063ac4460021461059a578063b3ab66b0146105af57600080fd5b80638cc4de19146104b15780638da5cb5b146104de578063954dc3e3146104fc57806395d89b411461050f578063a22cb4651461052457600080fd5b806334393743116101c75780636352211e1161018b5780636352211e146104275780636c0360eb1461044757806370a082311461045c578063715018a61461047c5780637cb647591461049157600080fd5b8063343937431461039957806342842e0e146103ae57806351830227146103ce57806355f804b3146103ed5780635c975abb1461040d57600080fd5b806312065fe01161020e57806312065fe0146103115780631798d58b1461032e57806318160ddd1461034e578063235b6ea11461036357806323b872dd1461037957600080fd5b806301ffc9a71461024b57806306fdde0314610280578063081812fc146102a2578063081c8c44146102da578063095ea7b3146102ef575b600080fd5b34801561025757600080fd5b5061026b610266366004611e0e565b6106ed565b60405190151581526020015b60405180910390f35b34801561028c57600080fd5b5061029561073f565b6040516102779190611e83565b3480156102ae57600080fd5b506102c26102bd366004611e96565b6107d1565b6040516001600160a01b039091168152602001610277565b3480156102e657600080fd5b506102956107f8565b3480156102fb57600080fd5b5061030f61030a366004611ec4565b610886565b005b34801561031d57600080fd5b50475b604051908152602001610277565b34801561033a57600080fd5b50600e5461026b9062010000900460ff1681565b34801561035a57600080fd5b506103206109a1565b34801561036f57600080fd5b5061032060115481565b34801561038557600080fd5b5061030f610394366004611ef0565b6109b1565b3480156103a557600080fd5b5061030f6109e2565b3480156103ba57600080fd5b5061030f6103c9366004611ef0565b610a09565b3480156103da57600080fd5b50600e5461026b90610100900460ff1681565b3480156103f957600080fd5b5061030f610408366004611fbd565b610a24565b34801561041957600080fd5b50600e5461026b9060ff1681565b34801561043357600080fd5b506102c2610442366004611e96565b610a43565b34801561045357600080fd5b50610295610aa3565b34801561046857600080fd5b50610320610477366004612006565b610ab0565b34801561048857600080fd5b5061030f610b36565b34801561049d57600080fd5b5061030f6104ac366004611e96565b610b4a565b3480156104bd57600080fd5b506103206104cc366004612006565b60106020526000908152604090205481565b3480156104ea57600080fd5b506006546001600160a01b03166102c2565b61030f61050a366004612023565b610b57565b34801561051b57600080fd5b50610295610e59565b34801561053057600080fd5b5061030f61053f3660046120af565b610e68565b34801561055057600080fd5b5061030f61055f366004611e96565b610e73565b34801561057057600080fd5b50600e5461026b906301000000900460ff1681565b34801561059157600080fd5b5061030f610e80565b3480156105a657600080fd5b5061030f610e99565b61030f6105bd366004611e96565b610ecf565b3480156105ce57600080fd5b5061030f6105dd3660046120ed565b6110a5565b3480156105ee57600080fd5b5061030f6110dd565b34801561060357600080fd5b506102956110f9565b34801561061857600080fd5b50610295610627366004611e96565b611106565b34801561063857600080fd5b50610320600a5481565b34801561064e57600080fd5b5061030f61065d366004611fbd565b611285565b34801561066e57600080fd5b5061030f6112a0565b34801561068357600080fd5b5061026b61069236600461216d565b6112c9565b3480156106a357600080fd5b5061032060085481565b3480156106b957600080fd5b5061030f6106c8366004611fbd565b611399565b3480156106d957600080fd5b5061030f6106e8366004612006565b6113b4565b60006001600160e01b031982166380ac58cd60e01b148061071e57506001600160e01b03198216635b5e139f60e01b145b8061073957506301ffc9a760e01b6001600160e01b03198316145b92915050565b60606000805461074e9061219b565b80601f016020809104026020016040519081016040528092919081815260200182805461077a9061219b565b80156107c75780601f1061079c576101008083540402835291602001916107c7565b820191906000526020600020905b8154815290600101906020018083116107aa57829003601f168201915b5050505050905090565b60006107dc8261142d565b506000908152600460205260409020546001600160a01b031690565b600c80546108059061219b565b80601f01602080910402602001604051908101604052809291908181526020018280546108319061219b565b801561087e5780601f106108535761010080835404028352916020019161087e565b820191906000526020600020905b81548152906001019060200180831161086157829003601f168201915b505050505081565b600061089182610a43565b9050806001600160a01b0316836001600160a01b031614156109045760405162461bcd60e51b815260206004820152602160248201527f4552433732313a20617070726f76616c20746f2063757272656e74206f776e656044820152603960f91b60648201526084015b60405180910390fd5b336001600160a01b0382161480610920575061092081336112c9565b6109925760405162461bcd60e51b815260206004820152603e60248201527f4552433732313a20617070726f76652063616c6c6572206973206e6f7420746f60448201527f6b656e206f776e6572206e6f7220617070726f76656420666f7220616c6c000060648201526084016108fb565b61099c838361148c565b505050565b60006109ac60125490565b905090565b6109bb33826114fa565b6109d75760405162461bcd60e51b81526004016108fb906121d6565b61099c838383611558565b6109ea6116f4565b600e805462ff0000198116620100009182900460ff1615909102179055565b61099c838383604051806020016040528060008152506110a5565b610a2c6116f4565b8051610a3f90600b906020840190611d5f565b5050565b6000818152600260205260408120546001600160a01b0316806107395760405162461bcd60e51b8152602060048201526018602482015277115490cdcc8c4e881a5b9d985b1a59081d1bdad95b88125160421b60448201526064016108fb565b600b80546108059061219b565b60006001600160a01b038216610b1a5760405162461bcd60e51b815260206004820152602960248201527f4552433732313a2061646472657373207a65726f206973206e6f7420612076616044820152683634b21037bbb732b960b91b60648201526084016108fb565b506001600160a01b031660009081526003602052604090205490565b610b3e6116f4565b610b48600061174e565b565b610b526116f4565b600855565b8181610bce828280806020026020016040519081016040528093929190818152602001838360200280828437600092019190915250506008546040516bffffffffffffffffffffffff193360601b1660208201529092506034019050604051602081830303815290604052805190602001206117a0565b1515600114610bef5760405162461bcd60e51b81526004016108fb90612224565b333214610c0e5760405162461bcd60e51b81526004016108fb90612224565b336001600160a01b03871614610c665760405162461bcd60e51b815260206004820152601860248201527f43727970746f50756e6b733a204e6f7420616c6c6f776564000000000000000060448201526064016108fb565b600e5462010000900460ff16610cbe5760405162461bcd60e51b815260206004820152601b60248201527f43727970746f50756e6b733a2050726573616c65206973204f4646000000000060448201526064016108fb565b600e5460ff1615610d115760405162461bcd60e51b815260206004820152601f60248201527f43727970746f50756e6b733a20436f6e7472616374206973207061757365640060448201526064016108fb565b600f54851115610d335760405162461bcd60e51b81526004016108fb90612250565b600f5433600090815260106020526040902054610d519087906122b0565b1115610d6f5760405162461bcd60e51b81526004016108fb90612250565b6000610d7a60125490565b600a54909150610d8a87836122b0565b1115610dd85760405162461bcd60e51b815260206004820181905260248201527f43727970746f50756e6b733a206d617820737570706c7920657863656564656460448201526064016108fb565b3486601154610de791906122c8565b1115610e055760405162461bcd60e51b81526004016108fb906122e7565b3360009081526010602052604081208054889290610e249084906122b0565b90915550600090505b86811015610e4f57610e3d6117b6565b80610e478161232a565b915050610e2d565b5050505050505050565b60606001805461074e9061219b565b610a3f33838361183b565b610e7b6116f4565b601155565b610e886116f4565b600e805461ff001916610100179055565b610ea16116f4565b33806108fc476040518115909202916000818181858888f19350505050158015610a3f573d6000803e3d6000fd5b333214610eee5760405162461bcd60e51b81526004016108fb90612224565b600e546301000000900460ff16610f475760405162461bcd60e51b815260206004820152601e60248201527f43727970746f50756e6b733a205075626c696353616c65206973204f4646000060448201526064016108fb565b600e5460ff1615610f9a5760405162461bcd60e51b815260206004820152601f60248201527f43727970746f50756e6b733a20436f6e7472616374206973207061757365640060448201526064016108fb565b60008111610fea5760405162461bcd60e51b815260206004820152601860248201527f43727970746f50756e6b733a207a65726f20616d6f756e74000000000000000060448201526064016108fb565b6000610ff560125490565b600a5490915061100583836122b0565b11156110535760405162461bcd60e51b815260206004820181905260248201527f43727970746f50756e6b733a204d617820737570706c7920657863656564656460448201526064016108fb565b348260115461106291906122c8565b11156110805760405162461bcd60e51b81526004016108fb906122e7565b60005b8281101561099c576110936117b6565b8061109d8161232a565b915050611083565b6110af33836114fa565b6110cb5760405162461bcd60e51b81526004016108fb906121d6565b6110d78484848461190a565b50505050565b6110e56116f4565b600e805460ff19811660ff90911615179055565b600d80546108059061219b565b6000818152600260205260409020546060906001600160a01b03166111855760405162461bcd60e51b815260206004820152602f60248201527f4552433732314d657461646174613a2055524920717565727920666f72206e6f60448201526e3732bc34b9ba32b73a103a37b5b2b760891b60648201526084016108fb565b600e54610100900460ff1661122657600c80546111a19061219b565b80601f01602080910402602001604051908101604052809291908181526020018280546111cd9061219b565b801561121a5780601f106111ef5761010080835404028352916020019161121a565b820191906000526020600020905b8154815290600101906020018083116111fd57829003601f168201915b50505050509050919050565b600061123061193d565b90506000815111611250576040518060200160405280600081525061127e565b8061125a8461194c565b600d60405160200161126e93929190612345565b6040516020818303038152906040525b9392505050565b61128d6116f4565b8051610a3f90600d906020840190611d5f565b6112a86116f4565b600e805463ff00000019811663010000009182900460ff1615909102179055565b60095460405163c455279160e01b81526001600160a01b03848116600483015260009281169190841690829063c45527919060240160206040518083038186803b15801561131657600080fd5b505afa15801561132a573d6000803e3d6000fd5b505050506040513d601f19601f8201168201806040525081019061134e9190612409565b6001600160a01b03161415611367576001915050610739565b6001600160a01b0380851660009081526005602090815260408083209387168352929052205460ff165b949350505050565b6113a16116f4565b8051610a3f90600c906020840190611d5f565b6113bc6116f4565b6001600160a01b0381166114215760405162461bcd60e51b815260206004820152602660248201527f4f776e61626c653a206e6577206f776e657220697320746865207a65726f206160448201526564647265737360d01b60648201526084016108fb565b61142a8161174e565b50565b6000818152600260205260409020546001600160a01b031661142a5760405162461bcd60e51b8152602060048201526018602482015277115490cdcc8c4e881a5b9d985b1a59081d1bdad95b88125160421b60448201526064016108fb565b600081815260046020526040902080546001600160a01b0319166001600160a01b03841690811790915581906114c182610a43565b6001600160a01b03167f8c5be1e5ebec7d5bd14f71427d1e84f3dd0314c0f7b2291e5b200ac8c7c3b92560405160405180910390a45050565b60008061150683610a43565b9050806001600160a01b0316846001600160a01b0316148061152d575061152d81856112c9565b806113915750836001600160a01b0316611546846107d1565b6001600160a01b031614949350505050565b826001600160a01b031661156b82610a43565b6001600160a01b0316146115cf5760405162461bcd60e51b815260206004820152602560248201527f4552433732313a207472616e736665722066726f6d20696e636f72726563742060448201526437bbb732b960d91b60648201526084016108fb565b6001600160a01b0382166116315760405162461bcd60e51b8152602060048201526024808201527f4552433732313a207472616e7366657220746f20746865207a65726f206164646044820152637265737360e01b60648201526084016108fb565b61163c60008261148c565b6001600160a01b0383166000908152600360205260408120805460019290611665908490612426565b90915550506001600160a01b03821660009081526003602052604081208054600192906116939084906122b0565b909155505060008181526002602052604080822080546001600160a01b0319166001600160a01b0386811691821790925591518493918716917fddf252ad1be2c89b69c2b068fc378daa952ba7f163c4a11628f55a4df523b3ef91a4505050565b6006546001600160a01b03163314610b485760405162461bcd60e51b815260206004820181905260248201527f4f776e61626c653a2063616c6c6572206973206e6f7420746865206f776e657260448201526064016108fb565b600680546001600160a01b038381166001600160a01b0319831681179093556040519116919082907f8be0079c531659141344cd1fd0a4f28419497f9722a3daafe3b4186f6b6457e090600090a35050565b6000826117ad8584611a4a565b14949350505050565b600260075414156118095760405162461bcd60e51b815260206004820152601f60248201527f5265656e7472616e637947756172643a207265656e7472616e742063616c6c0060448201526064016108fb565b600260075561181c601280546001019055565b600061182760125490565b90506118333382611a97565b506001600755565b816001600160a01b0316836001600160a01b0316141561189d5760405162461bcd60e51b815260206004820152601960248201527f4552433732313a20617070726f766520746f2063616c6c65720000000000000060448201526064016108fb565b6001600160a01b03838116600081815260056020908152604080832094871680845294825291829020805460ff191686151590811790915591519182527f17307eab39ab6107e8899845ad3d59bd9653f200f220920489ca2b5937696c31910160405180910390a3505050565b611915848484611558565b61192184848484611ab1565b6110d75760405162461bcd60e51b81526004016108fb9061243d565b6060600b805461074e9061219b565b6060816119705750506040805180820190915260018152600360fc1b602082015290565b8160005b811561199a57806119848161232a565b91506119939050600a836124a5565b9150611974565b60008167ffffffffffffffff8111156119b5576119b5611f31565b6040519080825280601f01601f1916602001820160405280156119df576020820181803683370190505b5090505b8415611391576119f4600183612426565b9150611a01600a866124b9565b611a0c9060306122b0565b60f81b818381518110611a2157611a216124cd565b60200101906001600160f81b031916908160001a905350611a43600a866124a5565b94506119e3565b600081815b8451811015611a8f57611a7b82868381518110611a6e57611a6e6124cd565b6020026020010151611bbe565b915080611a878161232a565b915050611a4f565b509392505050565b610a3f828260405180602001604052806000815250611bea565b60006001600160a01b0384163b15611bb357604051630a85bd0160e11b81526001600160a01b0385169063150b7a0290611af59033908990889088906004016124e3565b602060405180830381600087803b158015611b0f57600080fd5b505af1925050508015611b3f575060408051601f3d908101601f19168201909252611b3c91810190612520565b60015b611b99573d808015611b6d576040519150601f19603f3d011682016040523d82523d6000602084013e611b72565b606091505b508051611b915760405162461bcd60e51b81526004016108fb9061243d565b805181602001fd5b6001600160e01b031916630a85bd0160e11b149050611391565b506001949350505050565b6000818310611bda57600082815260208490526040902061127e565b5060009182526020526040902090565b611bf48383611c1d565b611c016000848484611ab1565b61099c5760405162461bcd60e51b81526004016108fb9061243d565b6001600160a01b038216611c735760405162461bcd60e51b815260206004820181905260248201527f4552433732313a206d696e7420746f20746865207a65726f206164647265737360448201526064016108fb565b6000818152600260205260409020546001600160a01b031615611cd85760405162461bcd60e51b815260206004820152601c60248201527f4552433732313a20746f6b656e20616c7265616479206d696e7465640000000060448201526064016108fb565b6001600160a01b0382166000908152600360205260408120805460019290611d019084906122b0565b909155505060008181526002602052604080822080546001600160a01b0319166001600160a01b03861690811790915590518392907fddf252ad1be2c89b69c2b068fc378daa952ba7f163c4a11628f55a4df523b3ef908290a45050565b828054611d6b9061219b565b90600052602060002090601f016020900481019282611d8d5760008555611dd3565b82601f10611da657805160ff1916838001178555611dd3565b82800160010185558215611dd3579182015b82811115611dd3578251825591602001919060010190611db8565b50611ddf929150611de3565b5090565b5b80821115611ddf5760008155600101611de4565b6001600160e01b03198116811461142a57600080fd5b600060208284031215611e2057600080fd5b813561127e81611df8565b60005b83811015611e46578181015183820152602001611e2e565b838111156110d75750506000910152565b60008151808452611e6f816020860160208601611e2b565b601f01601f19169290920160200192915050565b60208152600061127e6020830184611e57565b600060208284031215611ea857600080fd5b5035919050565b6001600160a01b038116811461142a57600080fd5b60008060408385031215611ed757600080fd5b8235611ee281611eaf565b946020939093013593505050565b600080600060608486031215611f0557600080fd5b8335611f1081611eaf565b92506020840135611f2081611eaf565b929592945050506040919091013590565b634e487b7160e01b600052604160045260246000fd5b600067ffffffffffffffff80841115611f6257611f62611f31565b604051601f8501601f19908116603f01168101908282118183101715611f8a57611f8a611f31565b81604052809350858152868686011115611fa357600080fd5b858560208301376000602087830101525050509392505050565b600060208284031215611fcf57600080fd5b813567ffffffffffffffff811115611fe657600080fd5b8201601f81018413611ff757600080fd5b61139184823560208401611f47565b60006020828403121561201857600080fd5b813561127e81611eaf565b6000806000806060858703121561203957600080fd5b843561204481611eaf565b935060208501359250604085013567ffffffffffffffff8082111561206857600080fd5b818701915087601f83011261207c57600080fd5b81358181111561208b57600080fd5b8860208260051b85010111156120a057600080fd5b95989497505060200194505050565b600080604083850312156120c257600080fd5b82356120cd81611eaf565b9150602083013580151581146120e257600080fd5b809150509250929050565b6000806000806080858703121561210357600080fd5b843561210e81611eaf565b9350602085013561211e81611eaf565b925060408501359150606085013567ffffffffffffffff81111561214157600080fd5b8501601f8101871361215257600080fd5b61216187823560208401611f47565b91505092959194509250565b6000806040838503121561218057600080fd5b823561218b81611eaf565b915060208301356120e281611eaf565b600181811c908216806121af57607f821691505b602082108114156121d057634e487b7160e01b600052602260045260246000fd5b50919050565b6020808252602e908201527f4552433732313a2063616c6c6572206973206e6f7420746f6b656e206f776e6560408201526d1c881b9bdc88185c1c1c9bdd995960921b606082015260800190565b6020808252601290820152712737ba1030b63637bbb2b21037b934b3b4b760711b604082015260600190565b6020808252602a908201527f43727970746f50756e6b733a20596f752063616e2774206d696e7420736f206d60408201526975636820746f6b656e7360b01b606082015260800190565b634e487b7160e01b600052601160045260246000fd5b600082198211156122c3576122c361229a565b500190565b60008160001904831182151516156122e2576122e261229a565b500290565b60208082526023908201527f43727970746f50756e6b733a204e6f7420656e6f756768206574686572732073604082015262195b9d60ea1b606082015260800190565b600060001982141561233e5761233e61229a565b5060010190565b6000845160206123588285838a01611e2b565b85519184019161236b8184848a01611e2b565b8554920191600090600181811c908083168061238857607f831692505b8583108114156123a657634e487b7160e01b85526022600452602485fd5b8080156123ba57600181146123cb576123f8565b60ff198516885283880195506123f8565b60008b81526020902060005b858110156123f05781548a8201529084019088016123d7565b505083880195505b50939b9a5050505050505050505050565b60006020828403121561241b57600080fd5b815161127e81611eaf565b6000828210156124385761243861229a565b500390565b60208082526032908201527f4552433732313a207472616e7366657220746f206e6f6e20455243373231526560408201527131b2b4bb32b91034b6b83632b6b2b73a32b960711b606082015260800190565b634e487b7160e01b600052601260045260246000fd5b6000826124b4576124b461248f565b500490565b6000826124c8576124c861248f565b500690565b634e487b7160e01b600052603260045260246000fd5b6001600160a01b038581168252841660208201526040810183905260806060820181905260009061251690830184611e57565b9695505050505050565b60006020828403121561253257600080fd5b815161127e81611df856fea2646970667358221220ac2a42f0fb445e2a1463576760d570746fe92bbedc43bba91e8f81e039689cee64736f6c63430008090033697066733a2f2f516d6248546772376361596a596377556e5638686748347531716b59674c7874537058314b534e644170367934742f68696464656e2e6a736f6e",
  "linkReferences": {},
  "deployedLinkReferences": {}
}